:10090A0041542B43574D4F44453D320D0A00415443
:10091A002B4349504D55583D310D0A0041542B4344
:10092A0049505345525645523D310D0A0041542B08
:10093A0043495053544152543D312C22544350227E
:10094A002C223139322E3136382E342E32222C35A1
:10095A003030300D0A0041542B43495053454E4420
:07096A003D312C350D0A00A0
:070A5000050C525332333252
:080A48008F993099FDC299223B
:100A17001209FEFF600C120A48740129F9E43AFA38
:030A270080EE223C
:0709D900120A177FE87E03FC
:1009E000D3EF9400EE940040147D6E7C00ED1D70FA
:0D09F000011CED4C70F7EF1F70E61E80E358
:0109FD0022D7
:0C0A3B00151315131513151315131513BF
:010A4700228C
:100A2A00151315131513151315131513151315137C
:010A3A002299
:1009B200E4FE30A0FD120A3B120A3B120A3BE4F5A8
:1009C2000B30A003750B0120A0FDEF25E0FFE50B26
:0609D20042070EBE08DC26
:0109D80022FC
:10097100C2A07F147E001209E0D2A0120A2A20A090
:100981002F30A0FD20A0FD1209B2AD071209B2ACB3
:10099100071209B2AB071209B2AA071209B2D2A013
:1009A100ED2C2B2A600A8D088C0A8B118A12F5090D
:0109B1002223
:10088C00758920758DFD758BFDC29FD29ED2AFD21E
:10089C009CD28E1209DC7BFF7A09790A1209D97A6B
:1008AC000979181209D97A0979261209D9D2AC1208
:1008BC00097185080C850A0D85110E85120F8509A5
:1008CC00107F027E001209E07BFF7A097937120A49
:1008DC00177F027E001209E07A097960120A177FED
:1008EC00027E001209E0E4FE740C2EF8E6FF120AF8
:0E08FC00480EBE05F37FD07E071209E080B1E2
:03000000020800F3
:0C080000787FE4F6D8FD758113020847EC
:1009FE00BB010689828A83E0225002E722BBFE02F7
:090A0E00E32289828A83E4932229
:10080C0002088CE493A3F8E493A34003F68001F26E
:10081C0008DFF48029E493A3F85407240CC8C333ED
:10082C00C4540F4420C8834004F456800146F6DFBC
:10083C00E4800B0102040810204080900A50E47EF2
:10084C00019360BCA3FF543F30E509541FFEE493B1
:10085C00A360010ECF54C025E060A840B8E493A378
:10086C00FAE493A3F8E493A3C8C582C8CAC583CAA3
:10087C00F0A3C8C582C8CAC583CADFE9DEE780BE5B
:010A5700009E
:00000001FF
